{
  "_format": "hh-sol-artifact-1",
  "contractName": "Transactions",
  "sourceName": "contracts/Transactions.sol",
  "abi": [
    {
      "anonymous": false,
      "inputs": [
        {
          "indexed": false,
          "internalType": "address",
          "name": "from",
          "type": "address"
        },
        {
          "indexed": false,
          "internalType": "address",
          "name": "receiver",
          "type": "address"
        },
        {
          "indexed": false,
          "internalType": "uint256",
          "name": "amount",
          "type": "uint256"
        },
        {
          "indexed": false,
          "internalType": "string",
          "name": "message",
          "type": "string"
        },
        {
          "indexed": false,
          "internalType": "uint256",
          "name": "timestamp",
          "type": "uint256"
        },
        {
          "indexed": false,
          "internalType": "string",
          "name": "keyword",
          "type": "string"
        }
      ],
      "name": "Transfer",
      "type": "event"
    },
    {
      "inputs": [
        {
          "internalType": "address payable",
          "name": "receiver",
          "type": "address"
        },
        {
          "internalType": "uint256",
          "name": "amount",
          "type": "uint256"
        },
        {
          "internalType": "string",
          "name": "message",
          "type": "string"
        },
        {
          "internalType": "string",
          "name": "keyword",
          "type": "string"
        }
      ],
      "name": "addToBlockchain",
      "outputs": [],
      "stateMutability": "nonpayable",
      "type": "function"
    },
    {
      "inputs": [],
      "name": "getAllTransactions",
      "outputs": [
        {
          "components": [
            {
              "internalType": "address",
              "name": "sender",
              "type": "address"
            },
            {
              "internalType": "address",
              "name": "receiver",
              "type": "address"
            },
            {
              "internalType": "uint256",
              "name": "amount",
              "type": "uint256"
            },
            {
              "internalType": "string",
              "name": "message",
              "type": "string"
            },
            {
              "internalType": "uint256",
              "name": "timestamp",
              "type": "uint256"
            },
            {
              "internalType": "string",
              "name": "keyword",
              "type": "string"
            }
          ],
          "internalType": "struct Transactions.TransferStruct[]",
          "name": "",
          "type": "tuple[]"
        }
      ],
      "stateMutability": "view",
      "type": "function"
    },
    {
      "inputs": [],
      "name": "getBalance",
      "outputs": [
        {
          "internalType": "uint256",
          "name": "",
          "type": "uint256"
        }
      ],
      "stateMutability": "view",
      "type": "function"
    },
    {
      "inputs": [],
      "name": "getTransactionCount",
      "outputs": [
        {
          "internalType": "uint256",
          "name": "",
          "type": "uint256"
        }
      ],
      "stateMutability": "view",
      "type": "function"
    }
  ],
  "bytecode": "0x608060405234801561001057600080fd5b50610c55806100206000396000f3fe608060405234801561001057600080fd5b506004361061004c5760003560e01c806312065fe01461005157806327506f531461006f5780632e7700f01461008d578063cc2d7ead146100ab575b600080fd5b6100596100c7565b6040516100669190610923565b60405180910390f35b6100776100e6565b6040516100849190610901565b60405180910390f35b610095610329565b6040516100a29190610923565b60405180910390f35b6100c560048036038101906100c09190610629565b610332565b005b60003373ffffffffffffffffffffffffffffffffffffffff1631905090565b60606001805480602002602001604051908101604052809291908181526020016000905b8282101561032057838290600052602060002090600602016040518060c00160405290816000820160009054906101000a900473ffffffffffffffffffffffffffffffffffffffff1673ffffffffffffffffffffffffffffffffffffffff1673ffffffffffffffffffffffffffffffffffffffff1681526020016001820160009054906101000a900473ffffffffffffffffffffffffffffffffffffffff1673ffffffffffffffffffffffffffffffffffffffff1673ffffffffffffffffffffffffffffffffffffffff168152602001600282015481526020016003820180546101f390610b21565b80601f016020809104026020016040519081016040528092919081815260200182805461021f90610b21565b801561026c5780601f106102415761010080835404028352916020019161026c565b820191906000526020600020905b81548152906001019060200180831161024f57829003601f168201915b505050505081526020016004820154815260200160058201805461028f90610b21565b80601f01602080910402602001604051908101604052809291908181526020018280546102bb90610b21565b80156103085780601f106102dd57610100808354040283529160200191610308565b820191906000526020600020905b8154815290600101906020018083116102eb57829003601f168201915b5050505050815250508152602001906001019061010a565b50505050905090565b60008054905090565b60016000808282546103449190610a05565b9250508190555060016040518060c001604052803373ffffffffffffffffffffffffffffffffffffffff1681526020018673ffffffffffffffffffffffffffffffffffffffff16815260200185815260200184815260200142815260200183815250908060018154018082558091505060019003906000526020600020906006020160009091909190915060008201518160000160006101000a81548173ffffffffffffffffffffffffffffffffffffffff021916908373ffffffffffffffffffffffffffffffffffffffff16021790555060208201518160010160006101000a81548173ffffffffffffffffffffffffffffffffffffffff021916908373ffffffffffffffffffffffffffffffffffffffff1602179055506040820151816002015560608201518160030190805190602001906104839291906104f4565b506080820151816004015560a08201518160050190805190602001906104aa9291906104f4565b5050507f416cfa4330a4565f45c2fd2dd4826a83a37443aba2ce6f79477c7355afac35fa3385858542866040516104e696959493929190610892565b60405180910390a150505050565b82805461050090610b21565b90600052602060002090601f0160209004810192826105225760008555610569565b82601f1061053b57805160ff1916838001178555610569565b82800160010185558215610569579182015b8281111561056857825182559160200191906001019061054d565b5b509050610576919061057a565b5090565b5b8082111561059357600081600090555060010161057b565b5090565b60006105aa6105a58461096f565b61093e565b9050828152602081018484840111156105c257600080fd5b6105cd848285610adf565b509392505050565b6000813590506105e481610bf1565b92915050565b600082601f8301126105fb57600080fd5b813561060b848260208601610597565b91505092915050565b60008135905061062381610c08565b92915050565b6000806000806080858703121561063f57600080fd5b600061064d878288016105d5565b945050602061065e87828801610614565b935050604085013567ffffffffffffffff81111561067b57600080fd5b610687878288016105ea565b925050606085013567ffffffffffffffff8111156106a457600080fd5b6106b0878288016105ea565b91505092959194509250565b60006106c883836107e4565b905092915050565b6106d981610aa9565b82525050565b6106e881610a5b565b82525050565b6106f781610a5b565b82525050565b6000610708826109af565b61071281856109d2565b9350836020820285016107248561099f565b8060005b85811015610760578484038952815161074185826106bc565b945061074c836109c5565b925060208a01995050600181019050610728565b50829750879550505050505092915050565b600061077d826109ba565b61078781856109e3565b9350610797818560208601610aee565b6107a081610be0565b840191505092915050565b60006107b6826109ba565b6107c081856109f4565b93506107d0818560208601610aee565b6107d981610be0565b840191505092915050565b600060c0830160008301516107fc60008601826106df565b50602083015161080f60208601826106df565b5060408301516108226040860182610874565b506060830151848203606086015261083a8282610772565b915050608083015161084f6080860182610874565b5060a083015184820360a08601526108678282610772565b9150508091505092915050565b61087d81610a9f565b82525050565b61088c81610a9f565b82525050565b600060c0820190506108a760008301896106ee565b6108b460208301886106d0565b6108c16040830187610883565b81810360608301526108d381866107ab565b90506108e26080830185610883565b81810360a08301526108f481846107ab565b9050979650505050505050565b6000602082019050818103600083015261091b81846106fd565b905092915050565b60006020820190506109386000830184610883565b92915050565b6000604051905081810181811067ffffffffffffffff8211171561096557610964610bb1565b5b8060405250919050565b600067ffffffffffffffff82111561098a57610989610bb1565b5b601f19601f8301169050602081019050919050565b6000819050602082019050919050565b600081519050919050565b600081519050919050565b6000602082019050919050565b600082825260208201905092915050565b600082825260208201905092915050565b600082825260208201905092915050565b6000610a1082610a9f565b9150610a1b83610a9f565b9250827fffffffffffffffffffffffffffffffffffffffffffffffffffffffffffffffff03821115610a5057610a4f610b53565b5b828201905092915050565b6000610a6682610a7f565b9050919050565b6000610a7882610a7f565b9050919050565b600073ffffffffffffffffffffffffffffffffffffffff82169050919050565b6000819050919050565b6000610ab482610abb565b9050919050565b6000610ac682610acd565b9050919050565b6000610ad882610a7f565b9050919050565b82818337600083830152505050565b60005b83811015610b0c578082015181840152602081019050610af1565b83811115610b1b576000848401525b50505050565b60006002820490506001821680610b3957607f821691505b60208210811415610b4d57610b4c610b82565b5b50919050565b7f4e487b7100000000000000000000000000000000000000000000000000000000600052601160045260246000fd5b7f4e487b7100000000000000000000000000000000000000000000000000000000600052602260045260246000fd5b7f4e487b7100000000000000000000000000000000000000000000000000000000600052604160045260246000fd5b6000601f19601f8301169050919050565b610bfa81610a6d565b8114610c0557600080fd5b50565b610c1181610a9f565b8114610c1c57600080fd5b5056fea2646970667358221220dcacde4bb7df60542f471b019906488e0e69d7e5d1925690fd48ee123365743364736f6c63430008000033",
  "linkReferences": {},
  "deployedLinkReferences": {}
}